{
  "transactions": [
    {
      "hash": "0xfa36b5adf1995c8e714e79f2ed2bde517e492be00e2d44f2a56c56eade3e4b5f",
      "transactionType": "CALL",
      "contractName": null,
      "contractAddress": "0x779877a7b0d9e8603169ddbd7836e478b4624789",
      "function": "transferAndCall(address,uint256,bytes)",
      "arguments": [
        "0x9DdfaCa8183c41ad55329BdeeD9F6A8d53168B1B",
        "3000000000000000000",
        "0x88fa009575ee92610d5e9e1f45926afdcd244a6503fd9c300b579d77afd1b9aa"
      ],
      "transaction": {
        "from": "0xc84afbb209bcef13701b5d21e5490151de33fe49",
        "to": "0x779877a7b0d9e8603169ddbd7836e478b4624789",
        "gas": "0x1603d",
        "value": "0x0",
        "input": "0x4000aea00000000000000000000000009ddfaca8183c41ad55329bdeed9f6a8d53168b1b00000000000000000000000000000000000000000000000029a2241af62c00000000000000000000000000000000000000000000000000000000000000000060000000000000000000000000000000000000000000000000000000000000002088fa009575ee92610d5e9e1f45926afdcd244a6503fd9c300b579d77afd1b9aa",
        "nonce": "0x7",
        "chainId": "0xaa36a7"
      },
      "additionalContracts": [],
      "isFixedGasLimit": false
    }
  ],
  "receipts": [
    {
      "status": "0x1",
      "cumulativeGasUsed": "0xa921e9",
      "logs": [
        {
          "address": "0x779877a7b0d9e8603169ddbd7836e478b4624789",
          "topics": [
            "0xddf252ad1be2c89b69c2b068fc378daa952ba7f163c4a11628f55a4df523b3ef",
            "0x000000000000000000000000c84afbb209bcef13701b5d21e5490151de33fe49",
            "0x0000000000000000000000009ddfaca8183c41ad55329bdeed9f6a8d53168b1b"
          ],
          "data": "0x00000000000000000000000000000000000000000000000029a2241af62c0000",
          "blockHash": "0x4d333fe528c2aacafb986c5a77f50a3fa7d54fd9eca302c4f6c25f84bda7d78a",
          "blockNumber": "0x9f7c29",
          "blockTimestamp": "0x69b6c5b0",
          "transactionHash": "0xfa36b5adf1995c8e714e79f2ed2bde517e492be00e2d44f2a56c56eade3e4b5f",
          "transactionIndex": "0x78",
          "logIndex": "0xf8",
          "removed": false
        },
        {
          "address": "0x779877a7b0d9e8603169ddbd7836e478b4624789",
          "topics": [
            "0xe19260aff97b920c7df27010903aeb9c8d2be5d310a2c67824cf3f15396e4c16",
            "0x000000000000000000000000c84afbb209bcef13701b5d21e5490151de33fe49",
            "0x0000000000000000000000009ddfaca8183c41ad55329bdeed9f6a8d53168b1b"
          ],
          "data": "0x00000000000000000000000000000000000000000000000029a2241af62c00000000000000000000000000000000000000000000000000000000000000000040000000000000000000000000000000000000000000000000000000000000002088fa009575ee92610d5e9e1f45926afdcd244a6503fd9c300b579d77afd1b9aa",
          "blockHash": "0x4d333fe528c2aacafb986c5a77f50a3fa7d54fd9eca302c4f6c25f84bda7d78a",
          "blockNumber": "0x9f7c29",
          "blockTimestamp": "0x69b6c5b0",
          "transactionHash": "0xfa36b5adf1995c8e714e79f2ed2bde517e492be00e2d44f2a56c56eade3e4b5f",
          "transactionIndex": "0x78",
          "logIndex": "0xf9",
          "removed": false
        },
        {
          "address": "0x9ddfaca8183c41ad55329bdeed9f6a8d53168b1b",
          "topics": [
            "0x1ced9348ff549fceab2ac57cd3a9de38edaaab274b725ee82c23e8fc8c4eec7a",
            "0x88fa009575ee92610d5e9e1f45926afdcd244a6503fd9c300b579d77afd1b9aa"
          ],
          "data": "0x00000000000000000000000000000000000000000000000098a7d9b8314c0000000000000000000000000000000000000000000000000000c249fdd327780000",
          "blockHash": "0x4d333fe528c2aacafb986c5a77f50a3fa7d54fd9eca302c4f6c25f84bda7d78a",
          "blockNumber": "0x9f7c29",
          "blockTimestamp": "0x69b6c5b0",
          "transactionHash": "0xfa36b5adf1995c8e714e79f2ed2bde517e492be00e2d44f2a56c56eade3e4b5f",
          "transactionIndex": "0x78",
          "logIndex": "0xfa",
          "removed": false
        }
      ],
      "logsBloom": "0x00000004000000000000000000000000000000000020000000000000020000000000000008000000000000000000000000000000020000000000000000000000010000000000000000000008000000000000000000000000000020000020000808000000000000000000000000000000000000000000000000000010000040000000000000000000000200010000800000000020000000000000000000000000000000000000000040000000010000000000000000000000000004000000000000000002000000000000000000000000000000000000000100000000000000000010000000000000800000000000000000000000000000000000000000000000",
      "type": "0x2",
      "transactionHash": "0xfa36b5adf1995c8e714e79f2ed2bde517e492be00e2d44f2a56c56eade3e4b5f",
      "transactionIndex": "0x78",
      "blockHash": "0x4d333fe528c2aacafb986c5a77f50a3fa7d54fd9eca302c4f6c25f84bda7d78a",
      "blockNumber": "0x9f7c29",
      "gasUsed": "0xf0d9",
      "effectiveGasPrice": "0xf4249",
      "from": "0xc84afbb209bcef13701b5d21e5490151de33fe49",
      "to": "0x779877a7b0d9e8603169ddbd7836e478b4624789",
      "contractAddress": null
    }
  ],
  "libraries": [],
  "pending": [],
  "returns": {},
  "timestamp": 1773585840609,
  "chain": 11155111,
  "commit": "ff23c88"
}